:080000000C9446000C94000072
:100008000C9400000C9400000C9400000C94000068
:100018000C9400000C9400000C9400000C94000058
:100028000C9400000C9400000C9400000C94000048
:100038000C9400000C9400000C9400000C94000038
:100048000C9400000C9400000C9400000C94000028
:100058000C9400000C9400000C9400000C94000018
:100068000C9400000C9400000C9400000C94000008
:100078000C9400000C9400000C9400000C940000F8
:100088000C940000F894EE27ECBBF1E0F5BFE5BF57
:10009800E0936C008DE0A2E0BB27ED938A95E9F729
:1000A80080E090E1A0E0B1E0ED930197E9F78BBF24
:1000B800EFEFEDBFE0E1EEBFC0E0D5E00C946400E7
:1000C800EFEFE4BB3FEF00E010E00830E0E01E0790
:1000D8005CF435BBA4EFB1E009D0E32FE6953E2FE1
:1000E800E5BB0F5F1F4FF1CFEDCFFFCF109639F073
:1000F800A89580EA9FE00197F1F71197C9F708954D
:00000001FF
